{
  "contractName": "OpulentSilver",
  "abi": [
    {
      "inputs": [],
      "stateMutability": "nonpayable",
      "type": "constructor"
    },
    {
      "anonymous": false,
      "inputs": [
        {
          "indexed": true,
          "internalType": "address",
          "name": "owner",
          "type": "address"
        },
        {
          "indexed": true,
          "internalType": "address",
          "name": "spender",
          "type": "address"
        },
        {
          "indexed": false,
          "internalType": "uint256",
          "name": "value",
          "type": "uint256"
        }
      ],
      "name": "Approval",
      "type": "event"
    },
    {
      "anonymous": false,
      "inputs": [
        {
          "indexed": true,
          "internalType": "address",
          "name": "from",
          "type": "address"
        },
        {
          "indexed": true,
          "internalType": "address",
          "name": "to",
          "type": "address"
        },
        {
          "indexed": false,
          "internalType": "uint256",
          "name": "value",
          "type": "uint256"
        }
      ],
      "name": "Transfer",
      "type": "event"
    },
    {
      "inputs": [],
      "name": "COLLATERALIZATION_RATIO",
      "outputs": [
        {
          "internalType": "uint256",
          "name": "",
          "type": "uint256"
        }
      ],
      "stateMutability": "view",
      "type": "function",
      "constant": true
    },
    {
      "inputs": [],
      "name": "FEE_PERCENTAGE",
      "outputs": [
        {
          "internalType": "uint256",
          "name": "",
          "type": "uint256"
        }
      ],
      "stateMutability": "view",
      "type": "function",
      "constant": true
    },
    {
      "inputs": [],
      "name": "PRICE_FEED_DECIMALS",
      "outputs": [
        {
          "internalType": "uint256",
          "name": "",
          "type": "uint256"
        }
      ],
      "stateMutability": "view",
      "type": "function",
      "constant": true
    },
    {
      "inputs": [
        {
          "internalType": "address",
          "name": "owner",
          "type": "address"
        },
        {
          "internalType": "address",
          "name": "spender",
          "type": "address"
        }
      ],
      "name": "allowance",
      "outputs": [
        {
          "internalType": "uint256",
          "name": "",
          "type": "uint256"
        }
      ],
      "stateMutability": "view",
      "type": "function",
      "constant": true
    },
    {
      "inputs": [
        {
          "internalType": "address",
          "name": "spender",
          "type": "address"
        },
        {
          "internalType": "uint256",
          "name": "amount",
          "type": "uint256"
        }
      ],
      "name": "approve",
      "outputs": [
        {
          "internalType": "bool",
          "name": "",
          "type": "bool"
        }
      ],
      "stateMutability": "nonpayable",
      "type": "function"
    },
    {
      "inputs": [
        {
          "internalType": "address",
          "name": "account",
          "type": "address"
        }
      ],
      "name": "balanceOf",
      "outputs": [
        {
          "internalType": "uint256",
          "name": "",
          "type": "uint256"
        }
      ],
      "stateMutability": "view",
      "type": "function",
      "constant": true
    },
    {
      "inputs": [
        {
          "internalType": "address",
          "name": "",
          "type": "address"
        }
      ],
      "name": "collateralBalances",
      "outputs": [
        {
          "internalType": "uint256",
          "name": "",
          "type": "uint256"
        }
      ],
      "stateMutability": "view",
      "type": "function",
      "constant": true
    },
    {
      "inputs": [],
      "name": "decimals",
      "outputs": [
        {
          "internalType": "uint8",
          "name": "",
          "type": "uint8"
        }
      ],
      "stateMutability": "view",
      "type": "function",
      "constant": true
    },
    {
      "inputs": [
        {
          "internalType": "address",
          "name": "spender",
          "type": "address"
        },
        {
          "internalType": "uint256",
          "name": "subtractedValue",
          "type": "uint256"
        }
      ],
      "name": "decreaseAllowance",
      "outputs": [
        {
          "internalType": "bool",
          "name": "",
          "type": "bool"
        }
      ],
      "stateMutability": "nonpayable",
      "type": "function"
    },
    {
      "inputs": [
        {
          "internalType": "address",
          "name": "spender",
          "type": "address"
        },
        {
          "internalType": "uint256",
          "name": "addedValue",
          "type": "uint256"
        }
      ],
      "name": "increaseAllowance",
      "outputs": [
        {
          "internalType": "bool",
          "name": "",
          "type": "bool"
        }
      ],
      "stateMutability": "nonpayable",
      "type": "function"
    },
    {
      "inputs": [],
      "name": "name",
      "outputs": [
        {
          "internalType": "string",
          "name": "",
          "type": "string"
        }
      ],
      "stateMutability": "view",
      "type": "function",
      "constant": true
    },
    {
      "inputs": [],
      "name": "symbol",
      "outputs": [
        {
          "internalType": "string",
          "name": "",
          "type": "string"
        }
      ],
      "stateMutability": "view",
      "type": "function",
      "constant": true
    },
    {
      "inputs": [],
      "name": "totalSupply",
      "outputs": [
        {
          "internalType": "uint256",
          "name": "",
          "type": "uint256"
        }
      ],
      "stateMutability": "view",
      "type": "function",
      "constant": true
    },
    {
      "inputs": [
        {
          "internalType": "address",
          "name": "to",
          "type": "address"
        },
        {
          "internalType": "uint256",
          "name": "amount",
          "type": "uint256"
        }
      ],
      "name": "transfer",
      "outputs": [
        {
          "internalType": "bool",
          "name": "",
          "type": "bool"
        }
      ],
      "stateMutability": "nonpayable",
      "type": "function"
    },
    {
      "inputs": [
        {
          "internalType": "address",
          "name": "from",
          "type": "address"
        },
        {
          "internalType": "address",
          "name": "to",
          "type": "address"
        },
        {
          "internalType": "uint256",
          "name": "amount",
          "type": "uint256"
        }
      ],
      "name": "transferFrom",
      "outputs": [
        {
          "internalType": "bool",
          "name": "",
          "type": "bool"
        }
      ],
      "stateMutability": "nonpayable",
      "type": "function"
    },
    {
      "inputs": [],
      "name": "mintSilver",
      "outputs": [],
      "stateMutability": "payable",
      "type": "function",
      "payable": true
    },
    {
      "inputs": [
        {
          "internalType": "uint256",
          "name": "amount",
          "type": "uint256"
        }
      ],
      "name": "burnSilver",
      "outputs": [],
      "stateMutability": "nonpayable",
      "type": "function"
    },
    {
      "inputs": [
        {
          "internalType": "uint256",
          "name": "silverAmount",
          "type": "uint256"
        }
      ],
      "name": "buyEthWithSilver",
      "outputs": [],
      "stateMutability": "nonpayable",
      "type": "function"
    },
    {
      "inputs": [],
      "name": "buySilverWithEth",
      "outputs": [],
      "stateMutability": "payable",
      "type": "function",
      "payable": true
    },
    {
      "inputs": [],
      "name": "getPrices",
      "outputs": [
        {
          "internalType": "uint256",
          "name": "",
          "type": "uint256"
        },
        {
          "internalType": "uint256",
          "name": "",
          "type": "uint256"
        }
      ],
      "stateMutability": "view",
      "type": "function",
      "constant": true
    },
    {
      "inputs": [
        {
          "internalType": "address",
          "name": "user",
          "type": "address"
        }
      ],
      "name": "getCollateralBalance",
      "outputs": [
        {
          "internalType": "uint256",
          "name": "",
          "type": "uint256"
        }
      ],
      "stateMutability": "view",
      "type": "function",
      "constant": true
    },
    {
      "inputs": [
        {
          "internalType": "address",
          "name": "user",
          "type": "address"
        }
      ],
      "name": "getCollateralizationRatio",
      "outputs": [
        {
          "internalType": "uint256",
          "name": "",
          "type": "uint256"
        }
      ],
      "stateMutability": "view",
      "type": "function",
      "constant": true
    },
    {
      "inputs": [
        {
          "internalType": "uint256",
          "name": "ethAmount",
          "type": "uint256"
        }
      ],
      "name": "calculateSilverForEth",
      "outputs": [
        {
          "internalType": "uint256",
          "name": "",
          "type": "uint256"
        }
      ],
      "stateMutability": "view",
      "type": "function",
      "constant": true
    },
    {
      "inputs": [
        {
          "internalType": "uint256",
          "name": "silverAmount",
          "type": "uint256"
        }
      ],
      "name": "calculateEthForSilver",
      "outputs": [
        {
          "internalType": "uint256",
          "name": "",
          "type": "uint256"
        }
      ],
      "stateMutability": "view",
      "type": "function",
      "constant": true
    },
    {
      "inputs": [
        {
          "internalType": "uint256",
          "name": "ethAmount",
          "type": "uint256"
        }
      ],
      "name": "getExpectedSilverForEth",
      "outputs": [
        {
          "internalType": "uint256",
          "name": "",
          "type": "uint256"
        }
      ],
      "stateMutability": "view",
      "type": "function",
      "constant": true
    },
    {
      "inputs": [
        {
          "internalType": "uint256",
          "name": "silverAmount",
          "type": "uint256"
        }
      ],
      "name": "getExpectedEthForSilver",
      "outputs": [
        {
          "internalType": "uint256",
          "name": "",
          "type": "uint256"
        }
      ],
      "stateMutability": "view",
      "type": "function",
      "constant": true
    }
  ],
  "bytecode": "0x608060405234801561000f575f80fd5b506040518060400160405280600e81526020016d27b83ab632b73a1029b4b63b32b960911b815250604051806040016040528060058152602001646f7058414760d81b8152508160039081610064919061015e565b506004610071828261015e565b5050600160055550600680546001600160a01b031990811673c56765f04b248394cf1619d20db8082edbfa75b1179091556007805490911673639fe6ab55c921f74e7fac1ee960c0b6293ba612179055610218565b634e487b7160e01b5f52604160045260245ffd5b600181811c908216806100ee57607f821691505b60208210810361010c57634e487b7160e01b5f52602260045260245ffd5b50919050565b601f82111561015957805f5260205f20601f840160051c810160208510156101375750805b601f840160051c820191505b81811015610156575f8155600101610143565b50505b505050565b81516001600160401b03811115610177576101776100c6565b61018b8161018584546100da565b84610112565b6020601f8211600181146101bd575f83156101a65750848201515b5f19600385901b1c1916600184901b178455610156565b5f84815260208120601f198516915b828110156101ec57878501518255602094850194600190920191016101cc565b508482101561020957868401515f19600387901b60f8161c191681555b50505050600190811b01905550565b611a97806102255f395ff3fe608060405260043610610198575f3560e01c806370a08231116100dc578063b091e00111610087578063dd62ed3e11610062578063dd62ed3e14610475578063e468e2fb146104c6578063ea470c07146104e5578063ed54ff22146104ed575f80fd5b8063b091e00114610425578063bd9a548b1461042d578063c714352c14610456575f80fd5b806395d89b41116100b757806395d89b41146103d3578063a457c2d7146103e7578063a9059cbb14610406575f80fd5b806370a08231146103525780637ac2e304146103935780638a1293b6146103b4575f80fd5b80632703ee85116101475780633402ff1d116101225780633402ff1d146102ec57806339509351146103005780634ed94b241461031f5780636778f1cd14610333575f80fd5b80632703ee851461026557806329bc969d146102a6578063313ce567146102d1575f80fd5b8063152e513d11610177578063152e513d1461021357806318160ddd1461023257806323b872dd14610246575f80fd5b80620b46f81461019c57806306fdde03146101c3578063095ea7b3146101e4575b5f80fd5b3480156101a7575f80fd5b506101b0600a81565b6040519081526020015b60405180910390f35b3480156101ce575f80fd5b506101d761050c565b6040516101ba91906117c2565b3480156101ef575f80fd5b506102036101fe36600461183d565b61059c565b60405190151581526020016101ba565b34801561021e575f80fd5b506101b061022d366004611865565b6105b5565b34801561023d575f80fd5b506002546101b0565b348015610251575f80fd5b5061020361026036600461187c565b61060d565b348015610270575f80fd5b506101b061027f3660046118b6565b73ffffffffffffffffffffffffffffffffffffffff165f9081526008602052604090205490565b3480156102b1575f80fd5b506101b06102c03660046118b6565b60086020525f908152604090205481565b3480156102dc575f80fd5b50604051601281526020016101ba565b3480156102f7575f80fd5b506101b0609681565b34801561030b575f80fd5b5061020361031a36600461183d565b610630565b34801561032a575f80fd5b506101b0600881565b34801561033e575f80fd5b506101b061034d366004611865565b61067b565b34801561035d575f80fd5b506101b061036c3660046118b6565b73ffffffffffffffffffffffffffffffffffffffff165f9081526020819052604090205490565b34801561039e575f80fd5b506103b26103ad366004611865565b6106b4565b005b3480156103bf575f80fd5b506101b06103ce366004611865565b61088d565b3480156103de575f80fd5b506101d76108d1565b3480156103f2575f80fd5b5061020361040136600461183d565b6108e0565b348015610411575f80fd5b5061020361042036600461183d565b6109b0565b6103b26109bd565b348015610438575f80fd5b50610441610af4565b604080519283526020830191909152016101ba565b348015610461575f80fd5b506103b2610470366004611865565b610c29565b348015610480575f80fd5b506101b061048f3660046118d6565b73ffffffffffffffffffffffffffffffffffffffff9182165f90815260016020908152604080832093909416825291909152205490565b3480156104d1575f80fd5b506101b06104e0366004611865565b610df1565b6103b2610dfc565b3480156104f8575f80fd5b506101b06105073660046118b6565b610ecd565b60606003805461051b90611907565b80601f016020809104026020016040519081016040528092919081815260200182805461054790611907565b80156105925780601f1061056957610100808354040283529160200191610592565b820191905f5260205f20905b81548152906001019060200180831161057557829003601f168201915b5050505050905090565b5f336105a9818585610fae565b60019150505b92915050565b5f805f6105c0610af4565b90925090505f670de0b6b3a76400006105d98487611985565b6105e3919061199c565b90505f826105f983670de0b6b3a7640000611985565b610603919061199c565b9695505050505050565b5f3361061a858285611161565b610625858585611237565b506001949350505050565b335f81815260016020908152604080832073ffffffffffffffffffffffffffffffffffffffff871684529091528120549091906105a990829086906106769087906119d4565b610fae565b5f80610686836105b5565b90505f6064610696600a84611985565b6106a0919061199c565b90506106ac81836119e7565b949350505050565b6106bc6114a4565b5f811161072a576040517f08c379a000000000000000000000000000000000000000000000000000000000815260206004820152601d60248201527f416d6f756e74206d7573742062652067726561746572207468616e203000000060448201526064015b60405180910390fd5b335f908152602081905260409020548111156107a2576040517f08c379a000000000000000000000000000000000000000000000000000000000815260206004820152601460248201527f496e73756666696369656e742062616c616e63650000000000000000000000006044820152606401610721565b5f6107ac8261088d565b335f90815260086020526040902054909150811115610827576040517f08c379a000000000000000000000000000000000000000000000000000000000815260206004820152601760248201527f496e73756666696369656e7420636f6c6c61746572616c0000000000000000006044820152606401610721565b6108313383611517565b335f908152600860205260408120805483929061084f9084906119e7565b9091555050604051339082156108fc029083905f818181858888f1935050505015801561087e573d5f803e3d5ffd5b505061088a6001600555565b50565b5f805f610898610af4565b90925090505f670de0b6b3a76400006108b18387611985565b6108bb919061199c565b90505f836105f983670de0b6b3a7640000611985565b60606004805461051b90611907565b335f81815260016020908152604080832073ffffffffffffffffffffffffffffffffffffffff87168452909152812054909190838110156109a3576040517f08c379a000000000000000000000000000000000000000000000000000000000815260206004820152602560248201527f45524332303a2064656372656173656420616c6c6f77616e63652062656c6f7760448201527f207a65726f0000000000000000000000000000000000000000000000000000006064820152608401610721565b6106258286868403610fae565b5f336105a9818585611237565b6109c56114a4565b5f3411610a2e576040517f08c379a000000000000000000000000000000000000000000000000000000000815260206004820152601b60248201527f4d7573742073656e642045544820746f206275792073696c76657200000000006044820152606401610721565b5f610a38346105b5565b90505f6064610a48600a84611985565b610a52919061199c565b90505f610a5f82846119e7565b305f90815260208190526040902054909150811115610ada576040517f08c379a000000000000000000000000000000000000000000000000000000000815260206004820152601b60248201527f496e73756666696369656e742073696c76657220696e20706f6f6c00000000006044820152606401610721565b610ae5303383611237565b505050610af26001600555565b565b5f805f60075f9054906101000a900473ffffffffffffffffffffffffffffffffffffffff1673ffffffffffffffffffffffffffffffffffffffff1663feaf968c6040518163ffffffff1660e01b815260040160a060405180830381865afa158015610b61573d5f803e3d5ffd5b505050506040513d601f19601f82011682018060405250810190610b859190611a13565b5050509150505f60065f9054906101000a900473ffffffffffffffffffffffffffffffffffffffff1673ffffffffffffffffffffffffffffffffffffffff1663feaf968c6040518163ffffffff1660e01b815260040160a060405180830381865afa158015610bf6573d5f803e3d5ffd5b505050506040513d601f19601f82011682018060405250810190610c1a9190611a13565b50949791965090945050505050565b610c316114a4565b5f8111610c9a576040517f08c379a000000000000000000000000000000000000000000000000000000000815260206004820152601d60248201527f416d6f756e74206d7573742062652067726561746572207468616e20300000006044820152606401610721565b335f90815260208190526040902054811115610d12576040517f08c379a000000000000000000000000000000000000000000000000000000000815260206004820152601460248201527f496e73756666696369656e742062616c616e63650000000000000000000000006044820152606401610721565b5f610d1c8261088d565b90505f6064610d2c600a84611985565b610d36919061199c565b90505f610d4382846119e7565b905047811115610daf576040517f08c379a000000000000000000000000000000000000000000000000000000000815260206004820152601860248201527f496e73756666696369656e742045544820696e20706f6f6c00000000000000006044820152606401610721565b610db93385611517565b604051339082156108fc029083905f818181858888f19350505050158015610de3573d5f803e3d5ffd5b5050505061088a6001600555565b5f806106868361088d565b610e046114a4565b5f3411610e6d576040517f08c379a000000000000000000000000000000000000000000000000000000000815260206004820152601560248201527f4d7573742073656e642045544820746f206d696e7400000000000000000000006044820152606401610721565b5f610e77346105b5565b90505f6096610e87836064611985565b610e91919061199c565b9050610e9d33826116d1565b335f9081526008602052604081208054349290610ebb9084906119d4565b9091555050600160055550610af29050565b73ffffffffffffffffffffffffffffffffffffffff81165f908152602081905260408120545f03610eff57505f919050565b5f80610f09610af4565b73ffffffffffffffffffffffffffffffffffffffff86165f9081526008602052604081205492945090925090670de0b6b3a764000090610f4a908590611985565b610f54919061199c565b90505f670de0b6b3a764000083610f8c8873ffffffffffffffffffffffffffffffffffffffff165f9081526020819052604090205490565b610f969190611985565b610fa0919061199c565b9050806105f9836064611985565b73ffffffffffffffffffffffffffffffffffffffff8316611050576040517f08c379a0000000000000000000000000000000000000000000000000000000008152602060048201526024808201527f45524332303a20617070726f76652066726f6d20746865207a65726f2061646460448201527f72657373000000000000000000000000000000000000000000000000000000006064820152608401610721565b73ffffffffffffffffffffffffffffffffffffffff82166110f3576040517f08c379a000000000000000000000000000000000000000000000000000000000815260206004820152602260248201527f45524332303a20617070726f766520746f20746865207a65726f20616464726560448201527f73730000000000000000000000000000000000000000000000000000000000006064820152608401610721565b73ffffffffffffffffffffffffffffffffffffffff8381165f8181526001602090815260408083209487168084529482529182902085905590518481527f8c5be1e5ebec7d5bd14f71427d1e84f3dd0314c0f7b2291e5b200ac8c7c3b92591015b60405180910390a3505050565b73ffffffffffffffffffffffffffffffffffffffff8381165f908152600160209081526040808320938616835292905220547fffffffffffffffffffffffffffffffffffffffffffffffffffffffffffffffff81146112315781811015611224576040517f08c379a000000000000000000000000000000000000000000000000000000000815260206004820152601d60248201527f45524332303a20696e73756666696369656e7420616c6c6f77616e63650000006044820152606401610721565b6112318484848403610fae565b50505050565b73ffffffffffffffffffffffffffffffffffffffff83166112da576040517f08c379a000000000000000000000000000000000000000000000000000000000815260206004820152602560248201527f45524332303a207472616e736665722066726f6d20746865207a65726f20616460448201527f64726573730000000000000000000000000000000000000000000000000000006064820152608401610721565b73ffffffffffffffffffffffffffffffffffffffff821661137d576040517f08c379a000000000000000000000000000000000000000000000000000000000815260206004820152602360248201527f45524332303a207472616e7366657220746f20746865207a65726f206164647260448201527f65737300000000000000000000000000000000000000000000000000000000006064820152608401610721565b73ffffffffffffffffffffffffffffffffffffffff83165f9081526020819052604090205481811015611432576040517f08c379a000000000000000000000000000000000000000000000000000000000815260206004820152602660248201527f45524332303a207472616e7366657220616d6f756e742065786365656473206260448201527f616c616e636500000000000000000000000000000000000000000000000000006064820152608401610721565b73ffffffffffffffffffffffffffffffffffffffff8481165f81815260208181526040808320878703905593871680835291849020805487019055925185815290927fddf252ad1be2c89b69c2b068fc378daa952ba7f163c4a11628f55a4df523b3ef910160405180910390a3611231565b600260055403611510576040517f08c379a000000000000000000000000000000000000000000000000000000000815260206004820152601f60248201527f5265656e7472616e637947756172643a207265656e7472616e742063616c6c006044820152606401610721565b6002600555565b73ffffffffffffffffffffffffffffffffffffffff82166115ba576040517f08c379a000000000000000000000000000000000000000000000000000000000815260206004820152602160248201527f45524332303a206275726e2066726f6d20746865207a65726f2061646472657360448201527f73000000000000000000000000000000000000000000000000000000000000006064820152608401610721565b73ffffffffffffffffffffffffffffffffffffffff82165f908152602081905260409020548181101561166f576040517f08c379a000000000000000000000000000000000000000000000000000000000815260206004820152602260248201527f45524332303a206275726e20616d6f756e7420657863656564732062616c616e60448201527f63650000000000000000000000000000000000000000000000000000000000006064820152608401610721565b73ffffffffffffffffffffffffffffffffffffffff83165f818152602081815260408083208686039055600280548790039055518581529192917fddf252ad1be2c89b69c2b068fc378daa952ba7f163c4a11628f55a4df523b3ef9101611154565b73ffffffffffffffffffffffffffffffffffffffff821661174e576040517f08c379a000000000000000000000000000000000000000000000000000000000815260206004820152601f60248201527f45524332303a206d696e7420746f20746865207a65726f2061646472657373006044820152606401610721565b8060025f82825461175f91906119d4565b909155505073ffffffffffffffffffffffffffffffffffffffff82165f81815260208181526040808320805486019055518481527fddf252ad1be2c89b69c2b068fc378daa952ba7f163c4a11628f55a4df523b3ef910160405180910390a35050565b602081525f82518060208401528060208501604085015e5f6040828501015260407fffffffffffffffffffffffffffffffffffffffffffffffffffffffffffffffe0601f83011684010191505092915050565b803573ffffffffffffffffffffffffffffffffffffffff81168114611838575f80fd5b919050565b5f806040838503121561184e575f80fd5b61185783611815565b946020939093013593505050565b5f60208284031215611875575f80fd5b5035919050565b5f805f6060848603121561188e575f80fd5b61189784611815565b92506118a560208501611815565b929592945050506040919091013590565b5f602082840312156118c6575f80fd5b6118cf82611815565b9392505050565b5f80604083850312156118e7575f80fd5b6118f083611815565b91506118fe60208401611815565b90509250929050565b600181811c9082168061191b57607f821691505b602082108103611952577f4e487b71000000000000000000000000000000000000000000000000000000005f52602260045260245ffd5b50919050565b7f4e487b71000000000000000000000000000000000000000000000000000000005f52601160045260245ffd5b80820281158282048414176105af576105af611958565b5f826119cf577f4e487b71000000000000000000000000000000000000000000000000000000005f52601260045260245ffd5b500490565b808201808211156105af576105af611958565b818103818111156105af576105af611958565b805169ffffffffffffffffffff81168114611838575f80fd5b5f805f805f60a08688031215611a27575f80fd5b611a30866119fa565b60208701516040880151606089015192975090955093509150611a55608087016119fa565b9050929550929590935056fea2646970667358221220dafb651658c303fb53be21350974a3465744e79d0590c97be1d575ca986b4e6264736f6c634300081a0033",
  "immutableReferences": {},
  "source": "// SPDX-License-Identifier: MIT\r\npragma solidity ^0.8.0;\r\n\r\nimport \"@openzeppelin/contracts/token/ERC20/ERC20.sol\";\r\nimport \"@openzeppelin/contracts/security/ReentrancyGuard.sol\";\r\n\r\ninterface IChainlinkAggregator {\r\n    function latestRoundData() external view returns (\r\n        uint80 roundId,\r\n        int256 answer,\r\n        uint256 startedAt,\r\n        uint256 updatedAt,\r\n        uint80 answeredInRound\r\n    );\r\n}\r\n\r\ncontract OpulentSilver is ERC20, ReentrancyGuard {\r\n    IChainlinkAggregator internal silverPriceFeed;\r\n    IChainlinkAggregator internal ethUsdPriceFeed;\r\n\r\n    uint256 public constant COLLATERALIZATION_RATIO = 150; // 150% collateralization\r\n    uint256 public constant PRICE_FEED_DECIMALS = 8;\r\n    uint256 public constant FEE_PERCENTAGE = 10; // 10% fee for transactions\r\n\r\n    mapping(address => uint256) public collateralBalances;\r\n\r\n    constructor() ERC20(\"Opulent Silver\", \"opXAG\") {\r\n        silverPriceFeed = IChainlinkAggregator(0xC56765f04B248394CF1619D20dB8082Edbfa75b1);\r\n        ethUsdPriceFeed = IChainlinkAggregator(0x639Fe6ab55C921f74e7fac1ee960C0B6293ba612);\r\n    }\r\n\r\n    function mintSilver() external payable nonReentrant {\r\n        require(msg.value > 0, \"Must send ETH to mint\");\r\n        \r\n        uint256 silverAmount = calculateSilverForEth(msg.value);\r\n        uint256 maxSilverAmount = (silverAmount * 100) / COLLATERALIZATION_RATIO;\r\n\r\n        _mint(msg.sender, maxSilverAmount);\r\n        collateralBalances[msg.sender] += msg.value;\r\n    }\r\n\r\n    function burnSilver(uint256 amount) external nonReentrant {\r\n        require(amount > 0, \"Amount must be greater than 0\");\r\n        require(balanceOf(msg.sender) >= amount, \"Insufficient balance\");\r\n\r\n        uint256 ethAmount = calculateEthForSilver(amount);\r\n\r\n        require(ethAmount <= collateralBalances[msg.sender], \"Insufficient collateral\");\r\n\r\n        _burn(msg.sender, amount);\r\n        collateralBalances[msg.sender] -= ethAmount;\r\n        payable(msg.sender).transfer(ethAmount);\r\n    }\r\n\r\n    function buyEthWithSilver(uint256 silverAmount) external nonReentrant {\r\n        require(silverAmount > 0, \"Amount must be greater than 0\");\r\n        require(balanceOf(msg.sender) >= silverAmount, \"Insufficient balance\");\r\n\r\n        uint256 ethAmount = calculateEthForSilver(silverAmount);\r\n        uint256 fee = (ethAmount * FEE_PERCENTAGE) / 100;\r\n        uint256 netEthAmount = ethAmount - fee;\r\n\r\n        require(netEthAmount <= address(this).balance, \"Insufficient ETH in pool\");\r\n\r\n        _burn(msg.sender, silverAmount);\r\n        payable(msg.sender).transfer(netEthAmount);\r\n    }\r\n\r\n    function buySilverWithEth() external payable nonReentrant {\r\n        require(msg.value > 0, \"Must send ETH to buy silver\");\r\n\r\n        uint256 silverAmount = calculateSilverForEth(msg.value);\r\n        uint256 fee = (silverAmount * FEE_PERCENTAGE) / 100;\r\n        uint256 netSilverAmount = silverAmount - fee;\r\n\r\n        require(balanceOf(address(this)) >= netSilverAmount, \"Insufficient silver in pool\");\r\n\r\n        _transfer(address(this), msg.sender, netSilverAmount);\r\n    }\r\n\r\n    function getPrices() public view returns (uint256, uint256) {\r\n        (, int256 ethUsdPrice,,,) = ethUsdPriceFeed.latestRoundData();\r\n        (, int256 silverUsdPrice,,,) = silverPriceFeed.latestRoundData();\r\n        \r\n        return (uint256(ethUsdPrice), uint256(silverUsdPrice));\r\n    }\r\n\r\n    function getCollateralBalance(address user) public view returns (uint256) {\r\n        return collateralBalances[user];\r\n    }\r\n\r\n    function getCollateralizationRatio(address user) public view returns (uint256) {\r\n        if (balanceOf(user) == 0) return 0;\r\n        \r\n        (uint256 ethUsdPrice, uint256 silverUsdPrice) = getPrices();\r\n        \r\n        uint256 collateralValueInUsd = (collateralBalances[user] * ethUsdPrice) / 1e18;\r\n        uint256 silverValueInUsd = (balanceOf(user) * silverUsdPrice) / 1e18;\r\n        \r\n        return (collateralValueInUsd * 100) / silverValueInUsd;\r\n    }\r\n\r\n    // Helper view functions\r\n    function calculateSilverForEth(uint256 ethAmount) public view returns (uint256) {\r\n        (uint256 ethUsdPrice, uint256 silverUsdPrice) = getPrices();\r\n        \r\n        uint256 ethValueInUsd = (ethAmount * ethUsdPrice) / 1e18;\r\n        uint256 silverAmount = (ethValueInUsd * 1e18) / silverUsdPrice;\r\n        \r\n        return silverAmount;\r\n    }\r\n\r\n    function calculateEthForSilver(uint256 silverAmount) public view returns (uint256) {\r\n        (uint256 ethUsdPrice, uint256 silverUsdPrice) = getPrices();\r\n\r\n        uint256 silverValueInUsd = (silverAmount * silverUsdPrice) / 1e18;\r\n        uint256 ethAmount = (silverValueInUsd * 1e18) / ethUsdPrice;\r\n        \r\n        return ethAmount;\r\n    }\r\n\r\n    function getExpectedSilverForEth(uint256 ethAmount) external view returns (uint256) {\r\n        uint256 silverAmount = calculateSilverForEth(ethAmount);\r\n        uint256 fee = (silverAmount * FEE_PERCENTAGE) / 100;\r\n        return silverAmount - fee;\r\n    }\r\n\r\n    function getExpectedEthForSilver(uint256 silverAmount) external view returns (uint256) {\r\n        uint256 ethAmount = calculateEthForSilver(silverAmount);\r\n        uint256 fee = (ethAmount * FEE_PERCENTAGE) / 100;\r\n        return ethAmount - fee;\r\n    }\r\n}",
  "sourcePath": "C:\\Users\\harni\\Documents\\GitHub\\ethglobalbrussels\\contracts\\contracts\\OpulentSilver.sol",
  "compiler": {
    "name": "solc",
    "version": "0.8.26+commit.8a97fa7a.Emscripten.clang"
  },
  "schemaVersion": "3.4.16",
  "updatedAt": "2024-07-14T03:57:05.708Z",
  "networkType": "ethereum",
  "devdoc": {
    "events": {
      "Approval(address,address,uint256)": {
        "details": "Emitted when the allowance of a `spender` for an `owner` is set by a call to {approve}. `value` is the new allowance."
      },
      "Transfer(address,address,uint256)": {
        "details": "Emitted when `value` tokens are moved from one account (`from`) to another (`to`). Note that `value` may be zero."
      }
    },
    "kind": "dev",
    "methods": {
      "allowance(address,address)": {
        "details": "See {IERC20-allowance}."
      },
      "approve(address,uint256)": {
        "details": "See {IERC20-approve}. NOTE: If `amount` is the maximum `uint256`, the allowance is not updated on `transferFrom`. This is semantically equivalent to an infinite approval. Requirements: - `spender` cannot be the zero address."
      },
      "balanceOf(address)": {
        "details": "See {IERC20-balanceOf}."
      },
      "decimals()": {
        "details": "Returns the number of decimals used to get its user representation. For example, if `decimals` equals `2`, a balance of `505` tokens should be displayed to a user as `5.05` (`505 / 10 ** 2`). Tokens usually opt for a value of 18, imitating the relationship between Ether and Wei. This is the default value returned by this function, unless it's overridden. NOTE: This information is only used for _display_ purposes: it in no way affects any of the arithmetic of the contract, including {IERC20-balanceOf} and {IERC20-transfer}."
      },
      "decreaseAllowance(address,uint256)": {
        "details": "Atomically decreases the allowance granted to `spender` by the caller. This is an alternative to {approve} that can be used as a mitigation for problems described in {IERC20-approve}. Emits an {Approval} event indicating the updated allowance. Requirements: - `spender` cannot be the zero address. - `spender` must have allowance for the caller of at least `subtractedValue`."
      },
      "increaseAllowance(address,uint256)": {
        "details": "Atomically increases the allowance granted to `spender` by the caller. This is an alternative to {approve} that can be used as a mitigation for problems described in {IERC20-approve}. Emits an {Approval} event indicating the updated allowance. Requirements: - `spender` cannot be the zero address."
      },
      "name()": {
        "details": "Returns the name of the token."
      },
      "symbol()": {
        "details": "Returns the symbol of the token, usually a shorter version of the name."
      },
      "totalSupply()": {
        "details": "See {IERC20-totalSupply}."
      },
      "transfer(address,uint256)": {
        "details": "See {IERC20-transfer}. Requirements: - `to` cannot be the zero address. - the caller must have a balance of at least `amount`."
      },
      "transferFrom(address,address,uint256)": {
        "details": "See {IERC20-transferFrom}. Emits an {Approval} event indicating the updated allowance. This is not required by the EIP. See the note at the beginning of {ERC20}. NOTE: Does not update the allowance if the current allowance is the maximum `uint256`. Requirements: - `from` and `to` cannot be the zero address. - `from` must have a balance of at least `amount`. - the caller must have allowance for ``from``'s tokens of at least `amount`."
      }
    },
    "version": 1
  },
  "userdoc": {
    "kind": "user",
    "methods": {},
    "version": 1
  }
}